:020000040800F2
:10000000200E0020490100085D0E0008450D000883
:10001000190E0008190B00089919000800000000CB
:100020000000000000000000000000005916000859
:10003000550B0008000000005F0100086101000886
:100040006301000863010008630100086301000800
:1000500063010008630100086301000863010008F0
:1000600063010008630100086301000863010008E0
:1000700063010008630100086301000863010008D0
:1000800063010008630100086301000863010008C0
:1000900063010008630100086301000863010008B0
:1000A00063010008630100086301000863010008A0
:1000B0006301000863010008630100086301000890
:1000C0006301000863010008630100086301000880
:1000D0006301000863010008630100086301000870
:1000E0006301000863010008630100086301000860
:1000F0006301000863010008630100086301000850
:10010000630100086301000863010008630100083F
:10011000630100086301000863010008630100082F
:10012000630100086301000863010008630100081F
:10013000DFF810D000F0FCFB00480047A9240008BD
:10014000AFF30080200E0020064880470648004795
:10015000FEE7FEE7FEE7FEE7FEE7FEE7FEE7FEE777
:10016000FEE7FEE75D170008310100082DE9F05FAA
:100170000546002092469B46884606468146402416
:100180001BE0284641464746224600F09BFA53466C
:100190005A46C01A914110D311461846224600F023
:1001A00016F82D1A67EB01084F4622460120002160
:1001B00000F00DF817EB00094E41201EA4F10104D8
:1001C000DFDC484631462A464346BDE8F09F202AF8
:1001D00004DB203A00FA02F1002070479140C2F19E
:1001E000200320FA03F3194390407047202A06DBCE
:1001F000CB17203A41FA02F043EAE07306E041FAF5
:1002000002F3D040C2F120029140084319467047E2
:1002100040EA01039B0703D009E008C9121F08C088
:10022000042AFAD203E011F8013B00F8013B521E08
:10023000F9D2704780EA010210B502F00043400095
:1002400022D04A001FD0010E01EB1261C0F356000C
:10025000C2F3560240F4000042F40002A0FB022068
:1002600000047F39140400D0401C50EA124001D42D
:100270004000491EC2B20C0604EBD010401C4008DE
:10028000802A02D003E0002010BD20F001000029E8
:1002900000DA0020184310BD2DE9FE4F804681EAA8
:1002A0000300C00F0C46009021F0004123F00045F0
:1002B000B8EB0200A94105D24046214690461C46B3
:1002C0000B46024623F00040104347D0270DC7F3EA
:1002D0000A00C3F30A510290401A019040286BDAD9
:1002E000C3F3130040F4801B0098924620B1002312
:1002F000D2EB030A63EB0B0B01985946C0F14002A5
:100300005046FFF764FF06460D4650465946019A8F
:10031000FFF76CFF10EB08006141002487EA1152DF
:1003200084EAE7731A4340D0009A62B3019A012A23
:100330004FEA075215DC001B61EB02014FF000424F
:1003400002EA0752CDE90042001C41F58011324615
:100350002B4600F00DFA03B0BDE8F08F4046214671
:10036000F9E7001B61EB0201001C41F58013001846
:100370005B412018A2F5001747EB030140EAD57056
:10038000B6196D4111E06D084FEA360645EAC075B1
:100390004FEA0752001B61EB0201001C41F580117E
:1003A00049084FEA30000019514132462B4603B04C
:1003B000BDE8F04F00F0CDB90098012240000023C5
:1003C000D0EB020263EBE073009821464FEAE07441
:1003D000B8EB000061EB0401E9E783F000435BE761
:1003E00081F0004158E72DE9FE4F81EA030404F053
:1003F000004421F0004100944FF0000B23F0004333
:1004000050EA01045ED052EA03045BD0C3F30A54FD
:10041000C1F30A552C44A4F2F3340194A0FB025416
:10042000C1F3130141F48011C3F3130343F48013A8
:1004300001FB024400FB034E840A970A44EA8154FC
:1004400047EA8357A4FB076802958D0A05FB0785D9
:100450004FEA932C04FB0C542705029D4FEA0658E3
:1004600047EA1637B5EB08056EEB070C870E920EC0
:1004700047EA811742EA8312A7FB0201B6EB0B01A0
:1004800064EB00042B0D43EA0C335E1844EB1C5064
:10049000DA465146E7FB0201C5F313044FEA0B337A
:1004A00043EA14534FEA0432019C43EA0603A4F1E1
:1004B0000C040294009CCDE900B400F059F903B09B
:1004C000BDE8F08F00200146F9E72DE9F04D81EA03
:1004D000030404F0004B21F0004514464FF0000ADD
:1004E00023F0004150EA050220D054EA01021DD059
:1004F000C5F30A570246C5F31303C1F31300C1F352
:100500000A5640F4801543F48013A7EB0608101B2D
:10051000D64608F2FD3873EB050002D308F1010856
:1005200001E092185B41B8F1000F03DA00200146A8
:10053000BDE8F08D00204FF48011064684460EE0A1
:10054000171B73EB050705D3121B63EB050306436B
:100550004CEA010C49084FEA300092185B4150EA1E
:100560000107EDD152EA030012D082EA040083EAC7
:100570000501084305D0101BAB4106D20122002320
:1005800006E000224FF0004302E06FF0010253103A
:100590001AEB06004CEB085110EB0A0041EB0B0183
:1005A000BDE8F04D00F0D5B896230022114600F0CA
:1005B000A2B80EB540F2334102910021CDE90011FD
:1005C0000A460B4600F0D4F803B000BD20F000400E
:1005D000C10DC0F3160040F400007F2901DA0020AD
:1005E0007047962903DCC1F19601C84070479639DF
:1005F0008840704700F0004230F000400AD0C10D42
:1006000001F56071C0F3160042EA0151C2084007CB
:1006100011437047002001467047000030B5041EAA
:1006200071F1000404DB4FF00044404264EB01012F
:10063000141E73F1000405DB1C464FF000435242C8
:1006400063EB0403994208BF904230BD01F00043C0
:1006500030B421F0004150EA010206D00A0DA2F5A3
:100660006072C1F31301002A02DC30BC0020704725
:10067000440F44EAC104C100E01830BC00EBC25092
:1006800000F030B8002801DBC0F10040002901DB98
:10069000C1F100418842704730B50B460146002049
:1006A0002022012409E021FA02F59D4205D303FA34
:1006B00002F5491B04FA02F52844151EA2F10102B5
:1006C000F1DC30BD202A04DB203A21FA02F00021BF
:1006D000704721FA02F3D040C2F120029140084352
:1006E000194670470029A8BF7047401C490008BF41
:1006F00020F00100704710B4B0FA80FC00FA0CF052
:1007000050EA010404BF10BC704749B1CCF1200489
:1007100021FA04F411FA0CF118BF01212143084316
:10072000A3EB0C01CB1D4FEA00614FEA102042BF42
:10073000002010BC704700EBC35010440029A4BF38
:1007400010BC7047401C490008BF20F0010010BCDD
:10075000704710B5141E73F1000408DA401C41F113
:10076000000192185B411A4301D120F0010010BD35
:100770002DE9F04D92469B4611B1B1FA81F202E0AB
:10078000B0FA80F220329046FFF721FD04460F4672
:1007900040EA0A0041EA0B0153465A46084313D087
:1007A000114653EA010019D0C8F140025046FFF744
:1007B00089FF05460E46504659464246FFF707FD5B
:1007C000084305D0012004E020463946BDE8F08DFD
:1007D0000020054346EAE0762C4337430A98630538
:1007E000E40AA0EB08000022FD0A44EA47540A305C
:1007F00002D500200146E9E7010510196941DDE94C
:10080000084500196941BDE8F04DA2E770B521F037
:10081000004303430CD0C1F30A550024D5EB040573
:1008200064EB0403D617AD1AB34102DB0020014686
:1008300070BD201841EB025170BD2DE9F04D002331
:100840001A461B1A8A4103DB00200146BDE8F08DE1
:10085000C1F30A52C1F3130141F480154FF0000BAC
:10086000D10702D100186D41521E0027044640F204
:10087000FF11384601EB620A3E46804602460020E0
:100880004FF48011FFF71EFFC2197141BB1846EBF0
:100890000100B4EB030C75EB000C04D3E41A65EB18
:1008A000000517460E46241908F101006D418046E7
:1008B0003428E3DDF91946EB0600091BA84103D2F1
:1008C0004FF0FF32134601E0002213461BEB0700F6
:1008D00046EB0A51BDE8F04DFFF73BBF0EB5C10F27
:1008E00080EAE0700844CA07002140F233438DE8F3
:1008F0000E000A460B46FFF73BFF03B000BDC1F3F5
:100900000A52C1F3130140F2FF3341F480119A42BD
:1009100002DA00200146704740F233439A42A2F2C5
:10092000334202DC5242FFF7CDBEFFF750BC00005D
:10093000064C074D06E0E06840F0010394E807002C
:1009400098471034AC42F6D3FFF7F6FBA03C000802
:10095000C03C000870B58C1810F8015B15F0070357
:1009600001D110F8013B2A1106D110F8012B03E048
:1009700010F8016B01F8016B5B1EF9D12B0705D450
:100980000023521E0DD401F8013BFAE710F8013B99
:10099000CB1A921C03E013F8015B01F8015B521EB5
:1009A000F9D5A142D8D3002070BD21B1826842F0B0
:1009B0000102826003E0826822F0010282607047D7
:1009C000014600208A6802F004020AB1012000E01A
:1009D000002070470146C86C80B270470246002074
:1009E00013680B400BB1012000E0002070470000AD
:1009F00030B502460020002350680F4C20400D798E
:100A00000C6844EA05242043506090680B4C204059
:100A1000D1E902542C434D7944EA450420439060C7
:100A2000D06A20F470000C7C641EE4B2234340EAD8
:100A30000350D06230BD0000FFFEF0FFFDF7F1FF74
:100A4000F0B504460D4600200021092D11DDE068B7
:100A5000A5F10A0606EB4607072606FA07F18843C2
:100A6000A5F10A0606EB460603FA06F10843E06024
:100A70000CE0206905EB4507072606FA07F18843D5
:100A800005EB450603FA06F108432061072A0FDA51
:100A9000606B561E06EB86071F2606FA07F1884391
:100AA000561E06EB860605FA06F10843606322E04F
:100AB0000D2A0FDA206BD61F06EB86071F2606FAD3
:100AC00007F18843D61F06EB860605FA06F10843B0
:100AD000206310E0E06AA2F10D0606EB86071F26F0
:100AE00006FA07F18843A2F10D0606EB860605FA21
:100AF00006F10843E062F0BD21B1826842F4A00231
:100B0000826003E0826822F4A002826070478168FC
:100B100041F004018160704700BFFEE708B5012184
:100B2000102000F0D1FB4FF40050ADF8000003207E
:100B30008DF8020010208DF803006946044800F08B
:100B400069F84FF40051024800F0FAF808BD0000BF
:100B500000100140704700003EB50446012102200C
:100B600000F0A2FB601E80B2ADF804004720ADF893
:100B700000000020ADF8020069460F4800F038FE82
:100B800000210D4800F032FE01210B4800F016FE56
:100B90000121094800F015FE00BF0121064800F0C0
:100BA0001CFE0028F9D00121034800F007FE0021B7
:100BB000014800F006FE3EBD000400403EB504467C
:100BC0000121042000F070FB601E80B2ADF804002B
:100BD00041F61F40ADF800000020ADF80200694664
:100BE0000B4800F005FE0021094800F0FFFD01213F
:100BF000074800F0E3FD0121054800F0E2FD00BFD9
:100C00000121034800F0E9FD0028F9D03EBD0000B5
:100C1000000800402DE9F041024600250026002092
:100C200000230024002791F803C00CF00F0591F871
:100C300003C00CF0100CBCF1000F03D091F802C0FF
:100C40004CEA050591F800C0BCF1000F31D01468E2
:100C500000202BE04FF0010C0CFA00F3B1F800C0BB
:100C60000CEA03069E4220D183004FF00F0C0CFAD1
:100C700003F7BC4305FA03FC4CEA040491F803C0F3
:100C8000BCF1280F06D14FF0010C0CFA00FCC2F8A1
:100C900014C00AE091F803C0BCF1480F05D14FF031
:100CA000010C0CFA00FCC2F810C0401C0828D1D37B
:100CB0001460B1F800C0BCF1FF0F34DD54680020AF
:100CC0002EE000F1080C4FF0010808FA0CF3B1F81F
:100CD00000C00CEA03069E4221D183004FF00F0CA6
:100CE0000CFA03F7BC4305FA03FC4CEA040491F840
:100CF00003C0BCF1280F05D100F1080C08FA0CF86C
:100D0000C2F8148091F803C0BCF1480F07D100F17C
:100D1000080C4FF0010808FA0CF8C2F81080401CCB
:100D20000828CED35460BDE8F081024600209368C5
:100D30000B400BB1012000E000207047416170477B
:100D40000161704700BFFEE710B54FF4005109483C
:100D5000FFF7F6FF4FF400410648FFF7F1FF4FF4AD
:100D600000410448FFF7EAFF4FF400510148FFF744
:100D7000E5FF10BD000C014010B54FF400510748CD
:100D8000FFF7DEFF4FF400410448FFF7D7FF4FF4B1
:100D900000410248FFF7D4FF10BD0000000C0140E5
:100DA00010B54FF400510448FFF7CAFF4FF400514B
:100DB0000148FFF7C3FF10BD000C014000B585B02E
:100DC0004FF4004000F064FA0121480200F07CFA80
:100DD000002000908DF804008DF805004FF460208D
:100DE00002900020039001208DF810006946094808
:100DF000FFF7FEFD01210748FFF7D7FD0548FFF784
:100E000086FE00BF0348FFF7DBFD0028FAD005B0DF
:100E100000BD00000024014000BFFEE708B501212D
:100E2000042000F051FA10208DF803004FF4C05058
:100E3000ADF8000001208DF8020069460648FFF772
:100E4000E9FE4FF400610448FFF778FF4FF480514A
:100E50000148FFF773FF08BD00080140704770B5F7
:100E6000002415E004F1B001C8B200F014F800202D
:100E700000F011F8102000F00EF8002504E000202A
:100E800000F01FF8681CC5B2802DF8DB601CC4B2EE
:100E9000082CE7DB70BD10B50446FFF755FF78203E
:100EA00000F0BCFDFFF77CFF002000F0B7FDFFF76E
:100EB00077FF204600F0B2FDFFF772FFFFF75CFFFF
:100EC00010BD10B50446FFF73FFF782000F0A6FDE7
:100ED000FFF766FF402000F0A1FDFFF761FF20460D
:100EE00000F09CFDFFF75CFFFFF746FF10BD06E03A
:100EF00042F2107100BF0A1EA1F10101FBD1021ED6
:100F0000A0F10100F4D1704708B50121082000F0DC
:100F1000DBF94FF40050ADF8000010208DF803000D
:100F200003208DF8020069463B48FFF773FE01215C
:100F3000082000F0C9F94FF40040ADF8000010207F
:100F40008DF8030003208DF8020069463248FFF750
:100F500061FE4FF400513048FFF7F2FE4FF40041BC
:100F60002D48FFF7EDFE4FF44870FFF7C0FFAE20AD
:100F7000FFF791FF0020FFF78EFF1020FFF78BFF98
:100F80004020FFF788FFB020FFF785FF8120FFF7A3
:100F900082FFFF20FFF77FFFA120FFF77CFFA62045
:100FA000FFF779FFA820FFF776FF3F20FFF773FFD9
:100FB000C820FFF770FFD320FFF76DFF0020FFF779
:100FC0006AFFD520FFF767FF8020FFF764FFD82076
:100FD000FFF761FF0520FFF75EFFD920FFF75BFFFA
:100FE000F120FFF758FFDA20FFF755FF1220FFF737
:100FF00052FFDB20FFF74FFF3020FFF74CFF8D2023
:10100000FFF749FF1420FFF746FFAF20FFF743FF2C
:10101000FFF725FF08BD0000000C014070B5044635
:101020000D4605F1B001C8B2FFF735FF102141EAC6
:101030001410FFF730FF04F00F00FFF72CFF70BD16
:101040002DE9F04180460D4616460024A6F1200702
:1010500029464046FFF7E2FF00BF07E004EB071117
:101060000E4A505CFFF72DFF601CC4B2082CF5DB64
:10107000681CC1B24046FFF7D1FF002409E00821F7
:1010800001EB07112144054A505CFFF71AFF601C71
:10109000C4B2082CF3DBBDE8F0810000C4350008C1
:1010A0002DE9F05F81460E4617461C46DDF828A064
:1010B0004FF0000BE11704EB5171C910A4EBC10113
:1010C00031B92046E11704EB5171C1F3C70406E0C2
:1010D0002046E11704EB5171C910491CCCB2002520
:1010E00016E07019C1B24846FFF798FF4FF00008AC
:1010F0000AE059460BF1010B1AF80100FFF7E1FE77
:1011000008F1010000F0FF08B845F2DB681CC5B229
:10111000A542E6DBBDE8F09F2DE9F04104460F460D
:10112000154600260EE0AA5D39462046FFF788FFE7
:1011300004F10800C4B2782C02DD0024B81CC7B248
:10114000701CC6B2A85D0028EDD1BDE8F081FCB5E9
:1011500002462F2300BF00208DF805008DF8040003
:101160008DF803008DF8020001208DF801000720A2
:101170008DF800002F2300250521002409E0581ECA
:10118000C3B2072C02DA601CC4B202E00024481E7D
:10119000C1B2505C80272741384008B90029EEDCF5
:1011A000A3F10800C5B21EE0052118E0481E1DF895
:1011B000000000F0800018B1002901DD012600E0E8
:1011C00000261DF801004006000E0DF801001DF874
:1011D00001003044C0B20DF80100481EC1B2FF2921
:1011E000E4DB681EC5B2002DDED1002106E0505CB4
:1011F0001DF8017078405054481CC1B20529F6DD35
:10120000082BA8DC1078FCBD3EB505460C46012134
:10121000084600F049F8601E80B2ADF8040041F6BF
:101220001F40ADF800000020ADF8020069464FF005
:10123000804000F0DDFA00214FF0804000F0D6FA47
:101240000121880700F0BAFA0121880700F0B9FAF5
:101250000FE04FF400510D48FFF770FD2846FFF7EF
:101260007BFC4FF400510948FFF76AFD2846FFF761
:1012700073FC0121880700F0B0FA0028E9D00021B2
:101280004FF0804000F09DFA3EBD0000001001408C
:1012900001460020034A506820F440400843506053
:1012A000704700000010024029B1064AD26902438B
:1012B000044BDA6104E0034AD2698243014BDA61EC
:1012C000704700000010024029B1064A92690243AB
:1012D000044B9A6104E0034A92698243014B9A618C
:1012E000704700000010024030B5002100220024A9
:1012F00000232D4D6D6805F00C0121B1042905D0A6
:10130000082923D105E0294D056022E0274D05601D
:101310001FE0254D6D6805F47012234D6D6805F4CE
:101320008034022505EB92421CB9214D55430560DE
:101330000BE01D4D6D6805F400351DB11C4D554386
:10134000056002E0194D5543056002E0174D056048
:1013500000BF00BF144D6D6805F0F0010909154D7F
:101360006B5C0568DD4045600F4D6D6805F4E0611C
:10137000090A104D6B5C4568DD4085600A4D6D685B
:1013800005F46051C90A0B4D6B5C4568DD40C560D2
:10139000054D6D6805F44041890B074D6B5CC568D0
:1013A000B5FBF3F5056130BD0010024000127A0074
:1013B00000093D00000000201000002010B5FFF7DC
:1013C0002DFD10BD002107E0002201E0531C9AB260
:1013D0008242FBDB4B1C99B20529F5DB704700000C
:1013E00008B501210420FFF76FFF0320ADF80000CE
:1013F00014208DF8030003208DF80200694605488B
:10140000FFF708FC01200349103108600220086042
:1014100008BD0000000801402DE9FC4F04460D46C0
:101420004FF00009CA46CB466006040E00BF00BF5D
:1014300000F0F6F8ABF1010000F0FF0BBBF1000F7C
:1014400000D136E000F0CEF8204600F0B3F800B14D
:10145000EEE7284600F0AEF800B1E9E700F0C2F888
:10146000611CC8B200F0A6F800B1E1E7002000F06E
:1014700069F88146002000F065F88246012000F0FE
:1014800061F8804600F0CCF88DF805408DF80450E6
:10149000601CC0B28DF803008DF802908DF801A099
:1014A00000208DF800006846FFF751FE06464645CD
:1014B000BDD100BF49EA0A273846BDE8FC8F0000CD
:1014C0002DE9F04707210020FFF7A6FF8246FFF72E
:1014D00070F80646074A084BFEF785FF04464FF0B2
:1014E0006632064BFEF779FF8046FFF7AFF8BDE89E
:1014F000F08700007B14AE47E17A943F661271409A
:1015000010B502200E4908600620FFF75BFF01209E
:101510000B4908600820FFF755FF094808380068A4
:1015200000F0020008B1012400E000240120044979
:10153000091D08600820FFF745FF204610BD000088
:101540001008014070B5064608250DE0FFF7D8FFEA
:1015500020B16006040E44F0010403E06006040EAE
:1015600004F0FE04681EC5B2002DEFD1304600F035
:1015700003F8204670BD000010B504461CB90220D7
:101580000B49086003E002200949091F0860062092
:10159000FFF718FF01200649091F08600820FFF720
:1015A00011FF0120024908600820FFF70BFF10BD62
:1015B00014080140F0B5044608250CE004F0800052
:1015C00008B1012600E000263046FFF7D5FF60068F
:1015D000040E681EC5B2002DF0D1FFF791FF07463B
:1015E0003846F0BD00B502200C4908600820FFF71E
:1015F000E9FE0120094908600820FFF7E3FE022008
:101600000649091D08600820FFF7DCFE0120034998
:10161000091D08600820FFF7D5FE00BD1008014035
:1016200000B501200B4908600820FFF7CBFE02201F
:10163000084908600820FFF7C5FE01200549091F79
:1016400008600820FFF7BEFE02200249091F08605B
:1016500000BD000014080140704710B500F002F80A
:1016600010BD00000CB500200190009033480068C8
:1016700040F480303149086000BF3048006800F411
:10168000003000900198401C0190009818B9019812
:10169000B0F5A06FF1D12948006800F4003010B116
:1016A0000120009001E0002000900098012843D123
:1016B0002348006840F0100021490860084600688F
:1016C00020F0030008600846006840F0020008604F
:1016D0001A4840681949486008464068486008460A
:1016E000406840F4806048600846406820F47C1000
:1016F00048600846406840F4E810486008460068C2
:1017000040F08070086000BF0C48006800F0007076
:101710000028F9D00948406820F0030007494860D4
:101720000846406840F00200486000BF0348406837
:1017300000F00C000828F9D10CBD00000010024098
:101740000020024010B5FFF769FB4FF4006102482A
:10175000FFF7F6FA10BD00000008014010B513486D
:10176000006840F0010011490860084640681049CF
:1017700008400E494860084600680E4908400B4979
:1017800008600846006820F4802008600846406829
:1017900020F4FE0048604FF41F008860FFF75DFFF3
:1017A0004FF000600449086010BD000000100240C6
:1017B0000000FFF8FFFFF6FE08ED00E0CA430282DA
:1017C000704721B1028842F00102028004E00288E1
:1017D0004FF6FE731A400280704702460020138ABB
:1017E0000B400BB1012000E000207047818470475E
:1017F000002202881D4B98420ED01D4B98420BD000
:10180000B0F1804F08D01B4B984205D01A4B98423C
:1018100002D01A4B984204D14FF68F731A404B886E
:101820001A43174B984207D0164B984204D04FF6F4
:10183000FF431A40CB881A4302808B8883850B882C
:1018400003850A4B98420BD0094B984208D00E4BA7
:10185000984205D00D4B984202D00D4B984201D1D1
:101860000B7A03860123838270470000002C01401D
:10187000003401400004004000080040000C00401B
:1018800000100040001400400040014000440140AE
:101890000048014001F40072B2F5007F00D100BFA2
:1018A000CA430280704721B1828942F4005282818A
:1018B00004E082894DF6FF731A4082817047000070
:1018C0002DE9F04786B005460E460024A24600BF2B
:1018D000A1460027B08900B100BF2F462C8A4CF6E4
:1018E000FF700440F08804432C82AC894EF6F3105C
:1018F0000440B08831890843718908430443AC81AE
:10190000AC8A4FF6FF400440B0890443AC8201A882
:10191000FFF7EAFC1F48874202D1DDF810A001E082
:10192000DDF80CA0A88900F4004040B10AEBCA0021
:1019300000EB0A1031684900B0FBF1F807E00AEB50
:10194000CA0000EB0A1031688900B0FBF1F864208E
:10195000B8FBF0F004012009642101FB1089A8897B
:1019600000F4004040B1322000EBC900B0FBF1F0C0
:1019700000F00700044308E0322000EB0910642166
:10198000B0FBF1F000F00F0004432C8106B0BDE87D
:10199000F08700000038014000BFFEE710B586B0B8
:1019A0000446012144F20400FFF78EFC18208DF854
:1019B00017004FF40070ADF8140003208DF81600E6
:1019C00005A91448FFF726F904208DF81700000236
:1019D000ADF8140005A90F48FFF71CF90194002089
:1019E000ADF810000C20ADF80E000020ADF80C0092
:1019F000ADF80A00ADF8080001A90748FFF760FF3D
:101A000001210548FFF74FFF40210348FFF742FF40
:101A100006B010BD000801400038014070B5044612
:101A20004FF400511148FFF789F900251BE004F03D
:101A3000800028B14FF400410C48FFF781F904E021
:101A40004FF400410948FFF779F96006040E4FF49E
:101A500000510648FFF774F94FF400510348FFF7AF
:101A60006DF9681CC5B2082DE1DB70BD000C0140AA
:101A70000FB4054B10B503A9044A029800F07EF993
:101A800010BC5DF814FB00008D2400081400002039
:101A90000FB4084B10B504A902AA039800F06EF920
:101AA000044602A9002000F0ECFC204610BC5DF8C2
:101AB00014FB000083240008490050EAC12018BF2D
:101AC00004204A0D18BF40F0010040F2FF72B2EB53
:101AD000515F08BF40F00200012808BF0520704791
:101AE0002DE9F0414F1E00EBC7010446D1E900018A
:101AF00015461E4637F006020DD02A463346FEF73D
:101B000072FC7F1E04EBC703D3E90023FEF7C4FB7E
:101B100037F00602F1D1022F25D0042F13D0062F63
:101B200018BFBDE8F0812A463346FEF75CFCD4E9D5
:101B30000A23FEF7B1FB2A463346FEF754FCD4E9EC
:101B40000823FEF7A9FB2A463346FEF74CFCD4E9EE
:101B50000623FEF7A1FB2A463346FEF744FCD4E9F0
:101B60000423FEF799FB2A463346FEF73CFCD4E9F2
:101B70000223FEF791FB2A463346FEF734FCD4E9F4
:101B80000023BDE8F041FEF787BB000000221346AA
:101B900010460149FEF799BC0000F03FFEF77CBB00
:101BA0000022134610461146FEF78FBC40F2013268
:101BB00000204FF0E041FEF729BE0000024A00205D
:101BC0001107FEF723BE000001FDFFFF02E008C879
:101BD000121F08C1002AFAD170477047002001E0A7
:101BE00001C1121F002AFBD17047000001490860A3
:101BF00070470000480600202DE9FF5F82B00021F9
:101C0000DDE90430020DDDF840B0034318D044F69E
:101C10001050A2F2FF3242431514119801281FD030
:101C2000A5EB0B00401C5FEA000A4FF000064E4F88
:101C3000DFF83891B046504615D5CAF1000413E0DC
:101C4000119801244AA3012801D16FEA0B010298DF
:101C5000119AC0E90031C0E9024206B0BDE8F09F28
:101C6000CBF10000DFE704460021404A491842EB6F
:101C70000450CDE9001012E0E00707D032463B46A1
:101C800040464946FEF7AFFB8046894632463B4612
:101C900010461946FEF7A7FB06460F466410002CB7
:101CA000EAD1DDE90401DDE90023BAF1000F06DA2B
:101CB000FEF799FB42464B46FEF795FB05E0FEF723
:101CC00004FC42464B46FEF700FC04460E4600224A
:101CD000284BFEF7A3FC03D84FF0FF30014607E086
:101CE0000022254B20463146FEF7D6FAFEF707FEC6
:101CF000102409E0002C0ADB0A220023FEF736FA42
:101D0000039B30321A55641E50EA0102F2D1641C62
:101D1000039AC4F111031444119A012A03D0012239
:101D200008430DD10AE0084304D000204FF0110B06
:101D3000119072E7A3EB0B056D1E0DE05B4504DD12
:101D40004FF0000205F1010504E003DA4FF0000254
:101D5000A5F10105002AECD002981199C0E90231E1
:101D6000C0E9004579E70000000014400000F03FA2
:101D7000300000000000F0430000E03F2DE9FF4F7D
:101D800095B09A46884606460025EEE1252877D18B
:101D900000242746F94A0121039400E0044316F881
:101DA000013F203B01FA03F01042F7D130782A2896
:101DB00011D06FF02F033078A0F13002092A16D825
:101DC000039A44F0020402EB820203EB4202104445
:101DD000761C0390EFE758F8042B0392002A03DAED
:101DE000504244F40054039044F00204761C3078CE
:101DF0002E2816D116F8010F44F004042A280DD01D
:101E00006FF02F023078A0F13003092B09D807EBCF
:101E1000870302EB4303C718761CF3E758F8047BEB
:101E2000761C30786C280FD006DC4C2817D0682838
:101E30000DD06A2814D104E0742810D07A280FD16C
:101E40000DE044F400140AE044F4801401E044F48A
:101E500040147278824202D104F58014761C761CFC
:101E6000307866280BD013DC582877D009DC00289E
:101E700075D04528F6D04628F4D047281AD193E1EA
:101E800018E0632835D0642879D0652812D18BE119
:101E9000702873D008DC6728F1D069286FD06E28CD
:101EA0000DD06F2806D1ACE073282CD0752874D0E3
:101EB000782853D05246179990476D1C54E1C4F3CB
:101EC0000250022809D003280DD0D8F800100428A9
:101ED0000DD00D6008F1040846E1D8F80010EA17AB
:101EE000C1E90052F6E7D8F800100D80F2E70D7056
:101EF000F0E718F8041B8DF8001000208DF80100A1
:101F0000EB46012003E058F804BB4FF0FF306107B7
:101F10004FF0000102D40DE009F101018946B942F8
:101F20000FDA8145F8DB1BF809100029F4D108E02D
:101F300009F1010189468142FADB1BF809100029E9
:101F4000F6D103985346A0EB090721463846179A65
:101F500000F080FA284400EB090507E044E008E1BE
:101F60000DE01BF8010B524617999047B9F1010992
:101F7000F7D2534621463846179AF2E039E00A2153
:101F8000C4F302524FF0000B0091022A06D058F819
:101F9000040BC117032A09D00AE023E008F1070067
:101FA00020F00702F2E80201904605E000B2C117F6
:101FB000042A01D140B2C117002906DA0A460021DD
:101FC000404261EB02012D2202E0220504D52B22C2
:101FD0008DF80420012203E0E20701D02022F7E778
:101FE000914657E00A2100E010214FF0000B0091CC
:101FF0000BE010214FF0000B44F00404082700917F
:1020000003E008204FF0000B0090C4F30252022AB4
:1020100005D058F8040B0021032A08D008E008F185
:10202000070020F00702F2E80201904603E080B2C8
:10203000042A00D1C0B24FF0000922072AD5327815
:10204000702A07D0DDF800C08CF0100C5CEA0B0C95
:1020500005D00EE040228DF80420012208E050EA6D
:10206000010306D030238DF804308DF805200222BC
:102070009146009B83F0080353EA0B030AD150EA10
:10208000010201D1620705D530228DF804204FF0FE
:1020900001097F1E3278582A04D039A20C920CAA6A
:1020A00002920BE03BA2F9E75B46009AFEF75EF86E
:1020B0000C9B9B5C029A521E0292137050EA010222
:1020C000F2D1029804A9081A00F1200B600702D58A
:1020D00024F4803400E001275F4502DDA7EB0B000C
:1020E00000E0002000EB0B01009003984944401AE7
:1020F0000390E00306D453462146179A039800F054
:10210000A9F90544002706E001A85246C05D1799C9
:1021100090476D1C7F1C4F45F6DBE0030CD5534602
:102120002146179A039800F095F9054404E0302001
:102130005246179990476D1C0099481E009000293F
:10214000F5DC08E00298029952460078491C029199
:10215000179990476D1CBBF10001ABF1010BF1DC4D
:102160005BE100F065F90544761C307800287FF4C7
:102170000DAE19B02846BDE8F08F00000928010017
:1021800030313233343536373839616263646566ED
:1021900000000000303132333435363738394142AF
:1021A0004344454600000000600700D4062708F1BC
:1021B000070020F00700F0E80223804603F0004CFF
:1021C0005FEA0C0001D097A009E0200501D596A098
:1021D00005E0E00701D095A001E0AFF24C001390BC
:1021E000307823F0004365280CD006DC452809D060
:1021F00046281DD047287FD13BE0662818D06728A5
:102200007AD136E00021112F01DB112000E0781C8B
:10221000CDE9000104A90CA8FFF7EEFCDDE90D01F2
:102220000C9A4FF0000B07F10109109200914EE05B
:102230004FF000400097CDE9011004A90CA8FFF76A
:10224000DBFCDDE90D020C9B0F994FF0000B914672
:102250001093009211B9791C00EB0109B7EB09004A
:1022600003D4C0F1FF3B07F10109A9EB070001907E
:1022700042E0012F00DA01270021112F01DD11209A
:1022800000E03846CDE9000104A90CA8FFF7B4FC32
:10229000DDE90D010C9A00914FF0000BB946109248
:1022A00021070FD4009A4A4503DA914601E0A9F1CB
:1022B0000109B9F1010F05DD109AA9F10101515C85
:1022C0003029F4D0B84202DA10F1040F03DA012108
:1022D000CDE9011010E0002803DC8344A9EB0001E4
:1022E00002E0411C494500DD8946A0EB0B00401C83
:1022F00001904FF000400290200705D40198484516
:1023000002DB4FF0FF30019000208DF84B00029867
:102310000DF14B07B0F1004F25D002200C902B207F
:102320000D90029800280CDA404202902D200D906A
:1023300007E00A210298FEF7AFF93031029007F862
:10234000011D0C99481E0C900029F2DC029800280F
:10235000EFD1791E0D980870307800F0200040F021
:10236000450007F8020D11A8C01BC01D029013986C
:10237000007800B1012000EB0901019801EBE07148
:10238000029801440398401A401E0390E00306D4CB
:1023900053462146179A039800F05CF805441398B9
:1023A000007818B15246179990476D1CE00323D569
:1023B00053462146179A039800F04CF805441BE059
:1023C000BBF1000F07DB0098584504DD1098179902
:1023D00010F80B0001E01799302052469047019801
:1023E0000BF1010B401E05F10105019004D12E20D7
:1023F0005246179990476D1CB9F10001A9F10109E6
:10240000DEDC05E017F8010B5246179990476D1C6A
:102410000299481E02900029F4DC53462146179A7F
:1024200003989EE62D0000002B0000002000000015
:102430002DE9F041044600251E461746880404D4C1
:1024400005E039462020B0476D1C641EF9D52846AA
:10245000BDE8F0812DE9F041044600251E46904676
:10246000C80301D5302700E02027880404D505E003
:1024700041463846B0476D1C641EF9D52846BDE874
:10248000F0810A68531C0B601070704700BF054A4A
:10249000128802F04002002AF9D0C2B2014B1B1D83
:1024A0001A8070470038014094B00020129000213B
:1024B0000C460D4600BF00BF00BFFEF725FDFEF72E
:1024C0007DFCFEF78DFF4FF4E130FFF767FABEE1C8
:1024D000032301220F21DE48FEF7B2FA0121DC4876
:1024E000FEF70AFB00BF0221D948FEF777FA002861
:1024F000F9D0D748FEF76EFA10901098FEF754F80E
:102500000390FEF777F84FF06632D24BCDE9040125
:10251000FDF769FFCDE90601FEF798F81290CE4964
:102520001298FDF787FE0790FEF750F81190A0462D
:10253000A94600200E900DE01198FEF73AF82246C9
:102540002B46CDE90601FDF7A7FE04460D460E9881
:10255000401C0E900E981928EEDB0022BF4B20463F
:102560002946FDF7B2FF04460D460022BC4B20462B
:102570002946FDF7AAFF04460D4622462B464FF09A
:102580006630B849FDF72FFFB74AB84BCDE90001D7
:10259000FDF726FF22462B46CDE90401B448B54994
:1025A000FDF721FFCDE90201DDE90423FDF78DFFF1
:1025B000B14AB24BCDE9060100F0B6F906460F4626
:1025C0000F98FEF717F802460B46CDE90067CDE9F4
:1025D0000601ABA0FFF74CFA00200B900C900D9079
:1025E00032463B46ADA10BA8FFF752FAADA200213F
:1025F0000846FEF791FD0BAA02210020FEF78CFD94
:10260000AAA202212820FEF787FD42F21070FEF7F1
:10261000D5FAA74AA74B40464946FDF73DFE22465C
:102620002B46CDE90601FDF7DBFE82468B460022F4
:10263000A14B50465946FDF7D6FE00221346CDE980
:102640000601FDF7EBFF0CD300229B4B20462946E9
:10265000FDF7C9FE0022984BCDE90601FDF7DEFF2C
:1026600016D8002007900FE094A0FFF701FA00F0C1
:102670006DFE96481C237622042100900020FEF770
:102680000FFD0798401C079007981428ECDB09E021
:102690008F481C237622042100900020FEF700FDC5
:1026A000FEF78CFEFEF70CFF0F900F98FDF7A2FFD0
:1026B00002460B46CDE9060178A108A8FFF7E8F924
:1026C000844810232122002100903C20FEF7E8FCE2
:1026D00008AA02213C20FEF71FFD7F4810231A465E
:1026E000022100906420FEF7DBFC7C490F98FDF787
:1026F000C9FF0FD87AA0FFF7BBF900F027FE7C488E
:102700001E237E22042100900020FEF7C9FCFFF763
:1027100019F80EE077481E237E2204210090002045
:10272000FEF7BEFC4FF400517348FEF707FBFEF7BF
:1027300045FE72A200213220FEF7EEFC6FA20121BD
:102740003220FEF7E9FC6DA202213220FEF7E4FC04
:102750006AA203213220FEF7DFFC4FF4F8616648DD
:10276000FEF7E3FA012825D1C0216348FEF7DDFA20
:1027700001280FD162A0FFF77BF900F0E7FD5C486C
:102780001E237E22042100900020FEF789FCFEF724
:10279000D9FF1EE05DA0FFF76BF900F0D7FD5448AC
:1027A0001E237E22042100900020FEF779FCFEF714
:1027B000C9FF0EE04F481E237E2204210090002016
:1027C000FEF76EFC4FF400514B48FEF7B7FAFEF7E8
:1027D000F5FD4FF474715048FEF7A7FA012826D191
:1027E0004FF440714C48FEF7A0FA01280FD144A0E5
:1027F000FFF73EF900F0AAFD3D481E237E2204218A
:1028000000900020FEF74CFCFEF79CFF1EE043A06A
:10281000FFF72EF900F09AFD35481E237E22042191
:1028200000900020FEF73CFCFEF78CFF0EE03148E4
:102830001E237E22042100900020FEF731FC4FF47D
:1028400000512D48FEF77AFAFEF7B8FD00BF3FE6CB
:102850000024014066664A3F00007A440000394087
:1028600000408F406666144014AE47E17AD4304091
:1028700046949B4DECE6794014D044D8F0F4E43F04
:102880003C54656D703A252E32663E2C3C50504DBE
:102890003A252E32663E0D0A00000000252E3266D3
:1028A0000000000070706D3A00000000250000007C
:1028B0009A9999999999B93F000024403C736D6F9A
:1028C0006B653A616C61726D3E0D0A001800002064
:1028D0004C060020E405002026060020000070427F
:1028E0003C74656D703A616C61726D3E0D0A00005A
:1028F000F001002024080020001001407C000000AE
:102900003C666972653A463E0D0A00003C66697293
:10291000653A523E0D0A0000000C01403C666972A7
:10292000653A4C3E0D0A00002DE9F04D1D460C465F
:1029300098B0174621F0004123F00043002814BF4F
:102940004FF0010C4FF0000C0CEB440CFE4A0CEB6A
:1029500002064FEA620C66452BD33E0018BF0126E3
:1029600006EB45061644F94A964222D3F84A53EA42
:10297000070C02D0944205D148B918B00020114686
:10298000BDE8F08D002808BF4FF0000C01D04FF0DB
:10299000010C0CEB440212F5001F0AD8002F14BFE3
:1029A0004FF0010C4FF0000C0CEB450212F5001F2C
:1029B00007D918B03A462B462146BDE8F04DFFF73F
:1029C000EDB80022DFF88CA3002CB8BF534526DAFF
:1029D000DFF884C36345A8BF022220DADFF870C3A2
:1029E0009C451CDCDFF874C30CEB235CBCF1140FBA
:1029F00008DDCCF1340627FA06FC0CFA06F6BE42D6
:102A00000DD108E05FB9CCF1140623FA06FC0CFAEC
:102A100006F69E4203D10CF00102C2F1020251EA15
:102A2000000C19D1002D17DA002C18BF022A01D092
:102A3000012A07D00220FFF7D9F818B0BDE8F04D01
:102A4000FFF7A4B80220FFF7D1F8FFF79FF818B0FE
:102A500081F00041BDE8F08DB7F1000C6CD1534519
:102A600025D104F1804212F5801201BF0028002018
:102A7000B74918B008BFBDE8F08DB548884207DCFB
:102A8000002DA1BF6046294618B0BDE8F08D07E0D3
:102A9000281E05DA80F0004118B06046BDE8F08DD0
:102AA000AF497944D1E9000118B0BDE8F08DDFF8F5
:102AB000A0C2634525D1002D1FDA19B1514512D1AD
:102AC000D8B909E0002840F0EC82A24A214618B0AB
:102AD00062F31E01BDE8F08D0020214618B060F3BE
:102AE0001E01BDE8F08D08DA18B02346BDE8F04DB0
:102AF000024600206146FDF7E8BC18B02146BDE85B
:102B0000F08D514518DAB5F1804F0DD0A5F1005C7C
:102B1000BCF1FF5C10D1B4F1000C0DDB18B06146C4
:102B2000BDE8F04D00F0ECBB234618B00246BDE80E
:102B3000F04D1946FDF757BC060024F0004C3BD180
:102B4000D9B1514533D1002C06DD002DA1BF0020A5
:102B5000514618B0BDE8F08D002C01DD002D1BDBC7
:102B6000002C13DA002D11DB012A4FF0000014BFF6
:102B700078497C4918B0BDE8F08D022A18BF002CB6
:102B80000AD0012A08D1002C06DA0AE0002CB8BFCE
:102B9000002D11DA012A04D0002018B00146BDE84A
:102BA000F08D18B000204FF00041BDE8F08DA1F18C
:102BB0004050B0F17F601AD0012000EBE47050EA81
:102BC000020421D0624C521E4FF0000B104304BF90
:102BD0004FF0000B644C654883427CDD644A6548D5
:102BE00093421FDD884217DB002D25DB37E0002CE8
:102BF00000DA4AB1022A0CBF01204FF0FF3018B0B2
:102C0000BDE8F04DFDF76ABE0120FEF7EFFF18B0FA
:102C1000BDE8F04DFEF7C4BF4D4A8A4202DC002DEC
:102C20000ADC1CE0814202DA002D18DA04E0484B8D
:102C3000994220DD002D12DD0220FEF7D7FFFEF7BE
:102C4000B5FF05460E460022534658462146FDF77D
:102C5000CAFB18B066F31E012846BDE8F08D0220BD
:102C6000FEF7C4FFFEF7AAFF0A46214618B062F33A
:102C70001E01BDE8F08D002230466146FDF7ADFB38
:102C800080460E466FF00102FDF7C0FD4FF0553251
:102C9000394BFDF7A5FB42463346FDF7A4FB002266
:102CA000364BFDF79DFB8246424633460491104663
:102CB0001946FDF798FB5246049BFDF794FB8A46A4
:102CC00000904FF0C0422E4B40463146FDF78BFB43
:102CD0002C4A2B4B00E027E0CDE906015146009835
:102CE000FDF781FB82460191274A284B4046314639
:102CF000FDF779FB5246019BFDF76FFB82460B46C1
:102D000002460591DDE90601FDF7C6FADDE9062375
:102D1000002688463046FDF760FB5246059BFDF7CE
:102D20005FFB024600F07EB90020B1F5801F07DA94
:102D3000352230466146FDF769FD06466FF03400E6
:102D400000EB215024E00000FFFF1F00FFFF0F00F9
:102D50000000F03F0000F07F0000404301FCFFFF57
:102D6000F21100000000F0FF0000F0BF0000E041A1
:102D70000000F043FFFFEF3F5555D53F0000E03F17
:102D80004715F73FFE822B6544DF5DF80BAE543EDE
:102D9000A0F2FF300190C1F3130040F07F6141F0D9
:102DA00040510291FE498842D8BF002004DDFD4910
:102DB0008142C8BF012001DD0D9008E000200D9088
:102DC0000198401C01900298A0F580100290029991
:102DD000F54878440B910D9900EBC100D0E9002330
:102DE0000F9330460A920B99FDF7F7FACDE90601E9
:102DF000DDE90A2130460F9BFDF74EFA02460B46ED
:102E00000020EA49FDF761FB059102460B46009060
:102E1000DDE90601FDF7E7FA1490E5488A464FF030
:102E2000000878440299006812904FF0005040EA80
:102E300061010D980F9B01EB804000F50021099185
:102E40000A9A1298FDF7C9FA32460B9BFDF7C8FAA9
:102E500042465346FDF7C7FA0646029140465146A0
:102E6000099B129AFDF7BFFADDE90623FDF7B8FAD0
:102E70003246029BFDF7B1FA059B009AFDF7B3FAC3
:102E80000091149A0490534610461946FDF7ABFA88
:102E900006460246C7480B46029106217844FEF7D3
:102EA0001FFECDE90510029B324610461946FDF77C
:102EB0009AFADDE90532FDF796FA05910646534682
:102EC00040461946149AFDF7E7F9009B049AFDF76E
:102ED0008AFA3246059BFDF7DFF9CDE90510424637
:102EE000534610461946FDF77EFA0022B24B029176
:102EF0000A90FDF7D1F9DDE90532FDF7CDF90E466F
:102F00004246AD4B4046FDF768FA029B0A9AFDF730
:102F100064FADDE90532FDF763FA424602910A9050
:102F2000334610465146FDF75EFACDE90601534699
:102F3000149A02990A98FDF756FA8A460290334687
:102F4000424600990498FDF74EFA5346029AFDF75F
:102F5000A3F982460B4602460591DDE90601FDF71D
:102F60009BF9DDE90623002088460646FDF735FA81
:102F70005246059BFDF734FA824609914FF06042B4
:102F80008E4B30464146FDF72EFA049006918C4A4E
:102F90008A4B50460999FDF726FA82460291894AE2
:102FA000894B30464146FDF71EFA5246029BFDF71B
:102FB00073F9864B7B440D9A03EBC203D3E90023DC
:102FC000FDF76AF90E9007910198FDF787FC0591CE
:102FD000DDE9061382460E9A0498FDF75DF97C4AF6
:102FE0007A440D9B02EBC303D3E9002300930292C2
:102FF000FDF752F95246059BFDF74EF9002688462B
:1030000052463046059BFDF7E8F9009B029AFDF712
:10301000E4F9069B049AFDF7E0F9079B0E9AFDF789
:10302000DFF9024600200B46029038462946FDF79C
:10303000DAF9824601912B4638461946029AFDF785
:10304000CCF932464346FDF7CEF95246019BFDF7D7
:1030500023F907468A463246434629460298FDF739
:10306000C2F905460E463A465346FDF715F9594A48
:103070008846914221DBA8EB020353EA000210D1FB
:103080002A463346FDF7A9F9CDE90401524A534BCC
:1030900038465146FDF700F9DDE90423FDF7BEFA95
:1030A00021D20220FEF7A2FDFEF780FD0A4621464E
:1030B00018B062F31E01BDE8F08D494B28F00042C4
:1030C0009A4210D3474A08EB020353EA00027FF406
:1030D000C6AD2A463346FDF780F93A465346FDF71A
:1030E0009DFA7FF6BCAD0022019228F000403E49D7
:1030F0003E4A01EB2051824223DA481C4FF48011F2
:1031000021FA00F040443A4AC0F30A517A44394B5C
:10311000A1F2FF31CB4020EA0303C0F3130040F4D7
:103120008010C1F11401C84012680190B8F1000F7D
:10313000BCBF4042019028463146FDF74EF9054696
:103140000E462A46334638465146FDF7A5F84FF05D
:1031500000084246284B40460591FDF744F9CDE969
:103160000601264A264B40460599FDF73CF9009199
:1031700002902A46334640460599FDF72EF93A4615
:103180005346FDF72DF91F4A1F4BFDF72CF9009B05
:10319000029AFDF781F80746884602460B4635E05D
:1031A0008E9803007AB60B003A0E00000000F03F44
:1031B000720E0000A00D00000000084009C7EE3F9D
:1031C000FD033ADCF5015B14E02F3EBE780C0000F5
:1031D0003C0C000000009040FE822B654715973C98
:1031E00000CC904000346F3F01FCFFFF0000E03F47
:1031F000880B0000FFFF0F00432EE63F396CA80C40
:10320000615C20BEEF39FAFE422EE63FDDE90601A1
:10321000FDF742F8DDE9062305460E46FDF7DDF829
:103220003A464346FDF7DCF80F462A4633460090FF
:1032300010461946FDF7D7F8824602462E488846C2
:103240000B4605217844FEF74BFC52464346FDF7FA
:10325000CAF82A463346FDF7C3F880468A463B46FD
:1032600028463146009AFDF7BEF83B46009AFDF726
:1032700013F80691009000224FF0804340465146DB
:10328000FDF7ABF80F460C904246534628463146B0
:10329000FDF7A9F83B460C9AFDF717F9069B009A33
:1032A000FDF79BF82A463346FDF797F80022134BAB
:1032B000FDF796F8054601980E4601EB00510815FA
:1032C000002810DC28463146019AFDF79FFAFEF7E8
:1032D000F3FB042808BFFEF771FC28463146019A2B
:1032E000FDF794FA05460B4618B02A465846214683
:1032F000BDE8F04DFDF777B8280A00000000F03F68
:103300002DE9F04106460F46FDF797FA041E0D46DB
:1033100018BF0120284320F00040C0F17F6000F179
:10332000E040C00F0ED0301C18BF0120384320F001
:103330000040C0F17F6000F1E040C00F04BF0120F9
:10334000FEF754FC20462946BDE8F08110B596B042
:10335000FDF7E4FB00243C220F4907A8FCF758FFC7
:103360000D4A3C3207CA04AB07C30B4B48330FCBA3
:103370008DE80F0000BF0AE05DF8241004AA52F89F
:10338000242007AB53F82200FDF73EFF641C032CFA
:10339000F2D316B010BD0000B43B000800000000DE
:1033A00000000000002F00000000070007000014CC
:1033B0007F147F1400242A7F2A12006264081323DA
:1033C00000364955225000000503000000001C2271
:1033D0004100000041221C000014083E08140008AF
:1033E000083E0808000000A060000008080808085F
:1033F000000060600000002010080402003E5149F7
:10340000453E0000427F4000004261514946002194
:1034100041454B31001814127F10002745454539AE
:10342000003C4A4949300001710905030036494909
:10343000493600064949291E0000363600000000C2
:10344000563600000008142241000014141414140D
:1034500000004122140800020151090600324959B6
:10346000513E007C1211127C007F49494936003ED2
:1034700041414122007F4141221C007F494949418D
:10348000007F09090901003E4149497A007F080887
:10349000087F0000417F4100002040413F01007F44
:1034A00008142241007F40404040007F020C027F10
:1034B000007F0408107F003E4141413E007F090922
:1034C0000906003E4151215E007F09192946004648
:1034D000494949310001017F0101003F4040403F1F
:1034E000001F2040201F003F4038403F0063140869
:1034F0001463000708700807006151494543000044
:103500007F41410000552A552A55000041417F0066
:10351000000402010204004040404040000001025B
:103520000400002054545478007F48444438003844
:103530004444442000384444487F003854545418CC
:1035400000087E0901020018A4A4A47C007F0804DE
:1035500004780000447D4000004080847D00007FAE
:10356000102844000000417F4000007C04180478CB
:10357000007C0804047800384444443800FC2424C7
:1035800024180018242418FC007C080404080048AF
:103590005454542000043F444020003C4040207CD0
:1035A000001C2040201C003C4030403C00442810BF
:1035B0002844001CA0A0A07C004464544C44141473
:1035C00014141414000000000000000000000000AB
:1035D00000000000000000F80000000000000033C0
:1035E0003000000000100C06100C06000000000067
:1035F0000000000040C07840C0784000043F040450
:103600003F040400007088FC08300000001820FF10
:10361000211E0000F008F000E018000000211C034B
:103620001E211E0000F00888700000001E212324C7
:103630001927211010160E000000000000000000E5
:1036400000000000000000E0180402000000000775
:103650001820400000020418E0000000004020187C
:1036600007000000404080F0804040000202010F4F
:1036700001020200000000F0000000000101011F33
:1036800001010100000000000000000080B0700097
:103690000000000000000000000000000001010127
:1036A00001010101000000000000000000303000B6
:1036B0000000000000000000806018040060180690
:1036C0000100000000E010080810E000000F1020CA
:1036D00020100F00001010F8000000000020203F14
:1036E000202000000070080808887000003028249E
:1036F000222130000030088888483000001820203F
:1037000020110E000000C02010F800000007042463
:10371000243F240000F808888808080000192120A8
:1037200020110E0000E0108888180000000F112002
:1037300020110E0000380808C83808000000003FBB
:10374000000000000070880808887000001C22211A
:1037500021221C0000E010080810E00000003122C7
:1037600022110F00000000C0C00000000000003067
:1037700030000000000000800000000000008060B9
:10378000000000000000804020100800000102043A
:103790000810200040404040404040000404040421
:1037A00004040400000810204080000000201008DD
:1037B00004020100007048080808F0000000003012
:1037C00036010000C030C828E810E00007182724A0
:1037D00023140B000000C038E0000000203C23024E
:1037E0000227382008F8888888700000203F2020B1
:1037F00020110E00C03008080808380007182020E3
:103800002010080008F808080810E000203F2020D9
:1038100020100F0008F88888E8081000203F2020BA
:103820002320180008F88888E8081000203F2000AE
:1038300003000000C03008080838000007182020E6
:10384000221E020008F808000008F808203F2101A5
:1038500001213F20000808F8080800000020203F50
:103860002020000000000808F8080800C0808080C0
:103870007F00000008F888C028180800203F2001B9
:103880002638200008F8080000000000203F202013
:103890002020300008F8F800F8F80800203F003F2A
:1038A000003F200008F830C00008F808203F200042
:1038B00007183F00E01008080810E0000F10202053
:1038C00020100F0008F808080808F000203F210128
:1038D00001010000E01008080810E0000F1824247F
:1038E00038504F0008F8888888887000203F2000F2
:1038F000030C3020007088080808380000382021A8
:1039000021221C00180808F8080818000000203FB1
:103910002000000008F808000008F808001F202018
:1039200020201F000878880000C8380800000738E9
:103930000E010000F80800F80008F800033C07003A
:10394000073C0300081868808068180820302C03A2
:10395000032C30200838C800C83808000000203F79
:103960002000000010080808C83808002038262168
:1039700020201800000000FE020202000000007F6C
:1039800040404000000C30C000000000000000017A
:103990000638C00000020202FE0000000040404065
:1039A0007F0000000000040202020400000000008A
:1039B0000000000000000000000000008080808007
:1039C00080808080000202040000000000000000EF
:1039D0000000000000008080808000000019242288
:1039E00022223F2008F8008080000000003F1120C4
:1039F00020110E000000008080800000000E1120C9
:103A000020201100000000808088F800000E1120A6
:103A100020103F200000808080800000001F2222B4
:103A200022221300008080F0888888180020203F20
:103A3000202000000000808080808000006B949433
:103A40009493600008F8008080800000203F2100EF
:103A500000203F2000809898000000000020203FB8
:103A600020200000000000809898000000C08080A6
:103A7000807F000008F8000080808000203F240242
:103A80002D302000000808F8000000000020203F32
:103A9000202000008080808080808000203F2000E7
:103AA0003F20003F8080008080800000203F210078
:103AB00000203F200000808080800000001F202028
:103AC00020201F00808000808000000080FFA12057
:103AD00020110E000000008080808000000E112068
:103AE00020A0FF80808080008080800020203F21F7
:103AF00020000100000080808080800000332424AA
:103B000024241900008080E0808000000000001F55
:103B1000202000008080000000808000001F202006
:103B200020103F20808080000080808000010E30C7
:103B30000806010080800080008080800F300C0328
:103B40000C300F0000808000808080000020312E2B
:103B50000E312000808080000080808080818E7007
:103B60001806010000808080808080000021302CB9
:103B70002221300000000000807C020200000000D2
:103B8000003F404000000000FF0000000000000077
:103B9000FF0000000002027C800000000040403F67
:103BA0000000000000060101020204040000000001
:103BB0000000000000000000BC03000053030000F0
:103BC000F6020000CC0200007E0200003802000075
:103BD000FA01000074070000A5060000EB050000D4
:103BE00099050000FC04000070040000F4030000CC
:103BF0000200000009000000FF000000F4010000C6
:103C0000F4010000F40100000000000000000000CA
:103C1000000000000000F03F000000000000F83F3E
:103C200000000000000000000000004003B8E23F78
:103C3000000000000000000006D0CF43EBFD4C3E2A
:103C4000033333333333E33FFFAB6FDBB66DDB3F1F
:103C50004D268F515555D53F01411DA96074D13F67
:103C600065DBC9934A86CD3FEF4E454A287ECA3F61
:103C70003E5555555555C53F93BDBE166CC166BFE3
:103C80002CDE25AF6A56113FF16BD2C541BDBBBEDC
:103C9000D0A4BE726937663E00000000000000003C
:103CA000C03C0008000000204C0600005409000839
:103CB000D03F00084C060020D4070000DC1B0008A1
:103CC000412D0102030404A00906070809020406A5
:103CD00008D780609C98608017E0E02020E0E01921
:103CE000042C203838062927514BF8F834212813A2
:103CF00020E0A0B0F0A0F0B0A02080E0F05040C0E4
:103D0000C040183809E0F0B08080F0F08001B17F49
:103D1000C0308E8C30C0721418060113FFFF9C0156
:103D200006187A1DFFFF080815180CF4F4979794ED
:103D3000949797F4F404B7100E070E1C90E0FF7FE1
:103D4000F090180E070310140447414F4A5A5E566C
:103D5000584F7043515B4E465F5C501E080ACBC9FA
:103D600048011B4F4F056CC8C808DB6BC038651A8B
:103D700038791D78464140012D587D7D58086541B0
:103D8000465860170707020207072C1F3F08011457
:103D9000183F1F30091010180C0C060301300803DF
:103DA00007060C1810106C757555015375753B1F7F
:103DB0001F322901631F1FAC60584765037E477897
:103DC000C80880601806186080143901212BC0C013
:103DD000A293C0C083E0E019172C40E040034D409F
:103DE000C0E0A02F112CC0E0202501128EC0300CA5
:103DF000083047897A120123FFFFBA01822DFFFFA5
:103E00001010161CFFFF8401290A111503061C302F
:103E10001580FF7FC02530180E032818988E9F95B7
:103E2000959DADA1BFC0C3A1B79C9C97A1A0101444
:103E3000179391013A9F067C9111107A1930294508
:103E40007B030C82497A3155307B7B308982180A9A
:103E5000070702020333180F071E1560607F3F102B
:103E60000A20203018080C06030128080103040862
:103E7000183020E46CEAEAAA0153EAE87B3F10011B
:103E80008B3F3F7AA96559820B12030201032A0373
:103E9000023A01BDE90BC922091401C17D806018F5
:103EA00007F7811BC0C0107A8001A91A890D7CC058
:103EB000C040012AC0D3212A401F390CBC80C04019
:103EC000514B300EF7C9671B300E8C1BFEFEAA9AB1
:103ED0000E1E2811080C989901C0DF5F4ACA4A4A91
:103EE000CACA5FDF1A2808FFFF09097D7D29011B67
:103EF0007D0901217C7F3F220133373780110E0E6F
:103F0000FAFA4B4A4ACBCB4A4A4BFBFA020E2DE057
:103F1000180601659D010618E0F7531C03556077EC
:103F200077205C031CE0DC2809707F07203F3F20DE
:103F300020032A3F031012403C0F20212133171D7C
:103F400019191D15372321203808044444243C1F27
:103F500004012B7F7F06211C3E3E02011D7F7F0254
:103F600002924A3E663B700C6669652C030C7064D5
:103F70000D101816111001064B11171C18100913FB
:103F8000661C111618971B18308F56F8A8A8A8F8A9
:103F90004009F050F05C50F0505042403808202169
:103FA0003218101E1202280D1040380E81845D3523
:103FB000355D4480BD19EA2119188009E0300808F0
:103FC000081810301C1F3020011A305F71000000EB
:0400000508000131BD
:00000001FF
